{
  "contractName": "CoinFlipper",
  "abi": [
    {
      "inputs": [],
      "stateMutability": "nonpayable",
      "type": "constructor"
    },
    {
      "inputs": [
        {
          "internalType": "address",
          "name": "",
          "type": "address"
        }
      ],
      "name": "userStatistics",
      "outputs": [
        {
          "internalType": "uint256",
          "name": "correctBets",
          "type": "uint256"
        },
        {
          "internalType": "uint256",
          "name": "totalBets",
          "type": "uint256"
        },
        {
          "internalType": "uint256",
          "name": "correctPercent",
          "type": "uint256"
        }
      ],
      "stateMutability": "view",
      "type": "function",
      "constant": true
    },
    {
      "inputs": [
        {
          "internalType": "uint256",
          "name": "requestId",
          "type": "uint256"
        },
        {
          "internalType": "uint256",
          "name": "betAmount",
          "type": "uint256"
        },
        {
          "internalType": "bool",
          "name": "betCast",
          "type": "bool"
        }
      ],
      "name": "placeBet",
      "outputs": [],
      "stateMutability": "nonpayable",
      "type": "function"
    },
    {
      "inputs": [
        {
          "internalType": "uint256",
          "name": "betAmount",
          "type": "uint256"
        },
        {
          "internalType": "bool",
          "name": "predicted",
          "type": "bool"
        }
      ],
      "name": "performFlip",
      "outputs": [
        {
          "internalType": "bool",
          "name": "result",
          "type": "bool"
        }
      ],
      "stateMutability": "nonpayable",
      "type": "function"
    },
    {
      "inputs": [],
      "name": "resetBet",
      "outputs": [],
      "stateMutability": "nonpayable",
      "type": "function"
    },
    {
      "inputs": [],
      "name": "getBet",
      "outputs": [
        {
          "components": [
            {
              "internalType": "address",
              "name": "user",
              "type": "address"
            },
            {
              "internalType": "uint256",
              "name": "requestId",
              "type": "uint256"
            },
            {
              "internalType": "uint256",
              "name": "betId",
              "type": "uint256"
            },
            {
              "internalType": "uint256",
              "name": "betAmount",
              "type": "uint256"
            },
            {
              "internalType": "bool",
              "name": "betCast",
              "type": "bool"
            },
            {
              "internalType": "bool",
              "name": "result",
              "type": "bool"
            }
          ],
          "internalType": "struct CoinFlipper.bet",
          "name": "",
          "type": "tuple"
        }
      ],
      "stateMutability": "view",
      "type": "function",
      "constant": true
    },
    {
      "inputs": [],
      "name": "testStats",
      "outputs": [
        {
          "components": [
            {
              "internalType": "uint256",
              "name": "correctBets",
              "type": "uint256"
            },
            {
              "internalType": "uint256",
              "name": "totalBets",
              "type": "uint256"
            },
            {
              "internalType": "uint256",
              "name": "correctPercent",
              "type": "uint256"
            }
          ],
          "internalType": "struct CoinFlipper.statistics",
          "name": "",
          "type": "tuple"
        }
      ],
      "stateMutability": "nonpayable",
      "type": "function"
    },
    {
      "inputs": [],
      "name": "testRandomStats",
      "outputs": [
        {
          "components": [
            {
              "internalType": "uint256",
              "name": "correctBets",
              "type": "uint256"
            },
            {
              "internalType": "uint256",
              "name": "totalBets",
              "type": "uint256"
            },
            {
              "internalType": "uint256",
              "name": "correctPercent",
              "type": "uint256"
            }
          ],
          "internalType": "struct CoinFlipper.statistics",
          "name": "",
          "type": "tuple"
        }
      ],
      "stateMutability": "nonpayable",
      "type": "function"
    }
  ],
  "bytecode": "0x6080604052611b5360405161001390610081565b61001d919061008e565b604051809103906000f080158015610039573d6000803e3d6000fd5b50600180546001600160a01b0319166001600160a01b039290921691909117905534801561006657600080fd5b50600080546001600160a01b031916331781556002556100a2565b6105148061091983390190565b6001600160401b0391909116815260200190565b610868806100b16000396000f3fe608060405234801561001057600080fd5b506004361061007d5760003560e01c806343146f361161005b57806343146f36146100d75780634486c806146100e157806372d1a5a3146100f4578063a02e9b71146100fc5761007d565b8063131df8c41461008257806320835e8c146100ad578063252acf15146100c2575b600080fd5b61009561009036600461065a565b61011c565b6040516100a493929190610783565b60405180910390f35b6100b561013d565b6040516100a49190610716565b6100ca6101b3565b6040516100a49190610762565b6100df610222565b005b6100df6100ef3660046106d3565b6102c0565b6100ca6103b0565b61010f61010a3660046106a4565b6103f7565b6040516100a4919061070b565b600a6020526000908152604090208054600182015460029092015490919083565b6101456105f6565b5033600090815260086020908152604091829020825160c08101845281546001600160a01b031681526001820154928101929092526002810154928201929092526003820154606082015260049091015460ff8082161515608084015261010090910416151560a082015290565b6101bb610639565b60005b600a8110156101e7576101d46101f460016103f7565b50806101df816107f0565b9150506101be565b5050336000908152600a6020908152604091829020825160608101845281548152600182015492810192909252600201549181019190915290565b6040805160c0810182523380825260006020808401828152848601838152606086018481526080870185815260a08801868152968652600890945296909320945185546001600160a01b0319166001600160a01b039091161785555160018501559051600284015592516003830155915160049091018054925160ff199093169115159190911761ff00191661010092151592909202919091179055565b6040805160c081018252338082526020808301879052600280548486018190526060850188905286151560808601819052600060a0909601869052600380546001600160a01b0319908116871780835560048d8155600595865560068d81556007805461ff001960ff19918216909817881682559a8c5260089099529a8a2080549093166001600160a01b039290921691909117825580546001830155935481860155975490880155835496909101805460ff9788161515951694909417808555925461010090819004909616151590950291909416179055815491906103a6836107f0565b9190505550505050565b6103b8610639565b60005b600a8110156101e757600581106103db576103d660006104c0565b6103e5565b6103e560016104c0565b806103ef816107f0565b9150506103bb565b600061040661023f84846102c0565b600160009054906101000a90046001600160a01b03166001600160a01b031663799ae2236040518163ffffffff1660e01b815260040160206040518083038186803b15801561045457600080fd5b505afa158015610468573d6000803e3d6000fd5b505050506040513d601f19601f8201168201806040525081019061048c9190610688565b9050811515811515146104a8576104a360006104c0565b6104b2565b6104b260016104c0565b6104ba610222565b92915050565b336000908152600a6020526040812060019081018054919290916104e5908490610799565b9091555050600080546001600160a01b03168152600a60205260408120600101805491610511836107f0565b9190505550801561056b57336000908152600a6020526040812080546001929061053c908490610799565b9091555050600080546001600160a01b03168152600a60205260408120805491610565836107f0565b91905055505b336000908152600a602052604090206001810154905461058c9060646107d1565b61059691906107b1565b336000908152600a60205260408082206002019290925580546001600160a01b0316815220600181015490546105cd9060646107d1565b6105d791906107b1565b600080546001600160a01b03168152600a602052604090206002015550565b6040518060c0016040528060006001600160a01b031681526020016000815260200160008152602001600081526020016000151581526020016000151581525090565b60405180606001604052806000815260200160008152602001600081525090565b60006020828403121561066b578081fd5b81356001600160a01b0381168114610681578182fd5b9392505050565b600060208284031215610699578081fd5b815161068181610821565b600080604083850312156106b6578081fd5b8235915060208301356106c881610821565b809150509250929050565b6000806000606084860312156106e7578081fd5b8335925060208401359150604084013561070081610821565b809150509250925092565b901515815260200190565b81516001600160a01b0316815260208083015190820152604080830151908201526060808301519082015260808083015115159082015260a09182015115159181019190915260c00190565b81518152602080830151908201526040918201519181019190915260600190565b9283526020830191909152604082015260600190565b600082198211156107ac576107ac61080b565b500190565b6000826107cc57634e487b7160e01b81526012600452602481fd5b500490565b60008160001904831182151516156107eb576107eb61080b565b500290565b60006000198214156108045761080461080b565b5060010190565b634e487b7160e01b600052601160045260246000fd5b801515811461082f57600080fd5b5056fea2646970667358221220805b7f1631fbe37cf5dbabb8a5d8d5b0bb2b5995c76d35c17c9b216b682de87964736f6c6343000800003360a060405260018054736168499c0cffcacd319c818142124b7a15e857ab6001600160a01b03199091161790557fd89b2bf150e3b9e13446986e571fb9cab24b13cea0a43ea20a6049a85cc807cc600255600380546601000000000000619c4063ffffffff199092169190911761ffff60201b19166403000000001763ffffffff60301b191617905534801561009457600080fd5b506040516105143803806105148339810160408190526100b39161011d565b6001546001600160601b0319606082901b1660805260008054600680546001600160a01b031990811633179091556001600160401b03909416600160a01b02600160a01b600160e01b0319949091166001600160a01b03909316929092179290921617905561014b565b60006020828403121561012e578081fd5b81516001600160401b0381168114610144578182fd5b9392505050565b60805160601c6103ac610168600039600060b701526103ac6000f3fe608060405234801561001057600080fd5b506004361061004c5760003560e01c80631fe543e314610051578063799ae22314610066578063e89e106a14610084578063f6eaffc814610099575b600080fd5b61006461005f36600461020d565b6100ac565b005b61006e61010b565b60405161007b91906102e1565b60405180910390f35b61008c61015f565b60405161007b9190610337565b61008c6100a73660046101f5565b610165565b336001600160a01b037f000000000000000000000000000000000000000000000000000000000000000016146100fd5760405162461bcd60e51b81526004016100f4906102ec565b60405180910390fd5b6101078282610186565b5050565b600080600242446040516020016101239291906102d3565b6040516020818303038152906040528051906020012060001c6101469190610340565b905080610156576000915061015b565b600191505b5090565b60055481565b6004818154811061017557600080fd5b600091825260209091200154905081565b805161019990600490602084019061019e565b505050565b8280548282559060005260206000209081019282156101d9579160200282015b828111156101d95782518255916020019190600101906101be565b5061015b9291505b8082111561015b57600081556001016101e1565b600060208284031215610206578081fd5b5035919050565b6000806040838503121561021f578081fd5b8235915060208084013567ffffffffffffffff8082111561023e578384fd5b818601915086601f830112610251578384fd5b81358181111561026357610263610360565b8381026040518582820101818110858211171561028257610282610360565b604052828152858101935084860182860187018b10156102a0578788fd5b8795505b838610156102c25780358552600195909501949386019386016102a4565b508096505050505050509250929050565b918252602082015260400190565b901515815260200190565b6020808252602b908201527f4f6e6c7920436f6f7264696e61746f72732063616e2063616c6c20666f72207260408201526a616e646f6d20776f72647360a81b606082015260800190565b90815260200190565b60008261035b57634e487b7160e01b81526012600452602481fd5b500690565b634e487b7160e01b600052604160045260246000fdfea26469706673582212202edee104c4abcc00193aa888ac023a6b9d743adc65cccf853c8e76d7218e58d164736f6c63430008000033",
  "immutableReferences": {},
  "source": "// SPDX-License-Identifier: MIT\r\n\r\npragma solidity >=0.8.0 <0.9.0;\r\n\r\n// @dev if youre not Hopeful and know that the license id is wrong\r\n// @dev i have no clue how its supposed to work so change it, whatever\r\n\r\nimport './VRFNumberGenerators.sol';\r\n\r\ncontract CoinFlipper {\r\n    //Writing things out\r\n    //Users can place a bet on heads or tails with a certain bet amount\r\n    //when a user presses the button to flip a coin, performFlip() executes after bid is placed\r\n    //CoinFlip from VRFNumGen executes and returns bool (performFlip will return this as well)\r\n    //before returning that value, the following will be calculated:\r\n    //correctBets, totalBets, correctPercent, global stats (stored in owner)\r\n    address owner;\r\n    VRFNumberGenerators numGen = new VRFNumberGenerators(6995); //evidently off of testnet subID cant be here\r\n    uint256 betID;\r\n\r\n    constructor() {\r\n        owner = msg.sender;\r\n        betID = 0;\r\n    }\r\n\r\n    //Stores a users current bet\r\n    struct bet {\r\n        address user;\r\n        uint256 requestId;\r\n        uint256 betId;\r\n        uint256 betAmount;\r\n        bool betCast;\r\n        bool result;\r\n    }\r\n    bet currentBet;\r\n    mapping(address => bet) currentBets;      //store bets in progress\r\n    mapping(uint256 => bet) betHistory;       //store bets once completed\r\n\r\n    //stores a users overall statistics\r\n    //owner address will store global statistics\r\n    struct statistics {\r\n        uint256 correctBets;\r\n        uint256 totalBets;\r\n        uint256 correctPercent;\r\n    }\r\n    mapping(address => statistics) public userStatistics;\r\n\r\n    //Creates a new bet, result init's to false until coinFlip is calculated\r\n    function placeBet(uint256 requestId, uint256 betAmount, bool betCast) public {\r\n        currentBet = bet(msg.sender, requestId, betID, betAmount, betCast, false);\r\n        currentBets[msg.sender] = currentBet;\r\n        betID++; //increment betID for the next unique bet\r\n    }\r\n\r\n    //After selecting a bet and pressing the flip coin button, perform the flip\r\n    //True is heads, false is tails\r\n    function performFlip(uint256 betAmount, bool predicted) public returns(bool result){\r\n        //place bet\r\n        //@dev using a temporary requestID until i know what that even is\r\n        placeBet(575, betAmount, predicted);\r\n        //perform coin flip\r\n        result = numGen.flipCoin();\r\n        //update statistics/other cleanup\r\n        result == predicted ? updateStats(true) : updateStats(false);\r\n        resetBet();\r\n        return result;\r\n    }\r\n    \r\n    //Resets user's current bet to default\r\n    //Pass this function only after post-flip transactions complete\r\n    function resetBet() public {\r\n        currentBets[msg.sender] = bet(msg.sender, 0, 0, 0, false, false);\r\n    }\r\n\r\n    //Updates both user and global stats after a performFlip transaction\r\n    function updateStats(bool betChoice) internal {\r\n        userStatistics[msg.sender].totalBets+=1;\r\n        userStatistics[owner].totalBets++;\r\n        if(betChoice) {\r\n            userStatistics[msg.sender].correctBets+=1;\r\n            userStatistics[owner].correctBets++;\r\n        }\r\n        userStatistics[msg.sender].correctPercent = (userStatistics[msg.sender].correctBets * 100) / (userStatistics[msg.sender].totalBets);\r\n        userStatistics[owner].correctPercent = (userStatistics[owner].correctBets * 100) / (userStatistics[owner].totalBets);\r\n    }\r\n\r\n    //functions for testing stuff bc lazy\r\n    function getBet() external view returns(bet memory){\r\n        //for testing\r\n        return currentBets[msg.sender];\r\n    }\r\n\r\n    function testStats() external returns(statistics memory) {\r\n        for(uint i = 0; i < 10; i++) {\r\n            i < 5 ? updateStats(true) : updateStats(false);\r\n        }\r\n        return userStatistics[msg.sender];\r\n    }\r\n\r\n    function testRandomStats() external returns(statistics memory) {\r\n        for(uint i = 0; i < 10; i++) {\r\n            performFlip(500, true);\r\n        }\r\n        return userStatistics[msg.sender];\r\n    }\r\n\r\n}",
  "sourcePath": "C:\\Users\\andre\\solidity projects\\vrf practice\\contracts\\CoinFlipper.sol",
  "compiler": {
    "name": "solc",
    "version": "0.8.0+commit.c7dfd78e.Emscripten.clang"
  },
  "schemaVersion": "3.4.7",
  "updatedAt": "2022-06-26T17:15:22.410Z",
  "networkType": "ethereum",
  "devdoc": {
    "kind": "dev",
    "methods": {},
    "version": 1
  },
  "userdoc": {
    "kind": "user",
    "methods": {},
    "version": 1
  }
}