{
  "contractName": "VRFNumberGenerators",
  "abi": [
    {
      "inputs": [
        {
          "internalType": "uint64",
          "name": "subscriptionId",
          "type": "uint64"
        }
      ],
      "stateMutability": "nonpayable",
      "type": "constructor"
    },
    {
      "inputs": [
        {
          "internalType": "uint256",
          "name": "requestId",
          "type": "uint256"
        },
        {
          "internalType": "uint256[]",
          "name": "randomWords",
          "type": "uint256[]"
        }
      ],
      "name": "rawFulfillRandomWords",
      "outputs": [],
      "stateMutability": "nonpayable",
      "type": "function"
    },
    {
      "inputs": [
        {
          "internalType": "uint256",
          "name": "",
          "type": "uint256"
        }
      ],
      "name": "s_randomWords",
      "outputs": [
        {
          "internalType": "uint256",
          "name": "",
          "type": "uint256"
        }
      ],
      "stateMutability": "view",
      "type": "function",
      "constant": true
    },
    {
      "inputs": [],
      "name": "s_requestId",
      "outputs": [
        {
          "internalType": "uint256",
          "name": "",
          "type": "uint256"
        }
      ],
      "stateMutability": "view",
      "type": "function",
      "constant": true
    },
    {
      "inputs": [],
      "name": "flipCoin",
      "outputs": [
        {
          "internalType": "bool",
          "name": "coin",
          "type": "bool"
        }
      ],
      "stateMutability": "view",
      "type": "function",
      "constant": true
    }
  ],
  "bytecode": "0x60a060405260018054736168499c0cffcacd319c818142124b7a15e857ab6001600160a01b03199091161790557fd89b2bf150e3b9e13446986e571fb9cab24b13cea0a43ea20a6049a85cc807cc600255600380546601000000000000619c4063ffffffff199092169190911761ffff60201b19166403000000001763ffffffff60301b191617905534801561009457600080fd5b506040516105143803806105148339810160408190526100b39161011d565b6001546001600160601b0319606082901b1660805260008054600680546001600160a01b031990811633179091556001600160401b03909416600160a01b02600160a01b600160e01b0319949091166001600160a01b03909316929092179290921617905561014b565b60006020828403121561012e578081fd5b81516001600160401b0381168114610144578182fd5b9392505050565b60805160601c6103ac610168600039600060b701526103ac6000f3fe608060405234801561001057600080fd5b506004361061004c5760003560e01c80631fe543e314610051578063799ae22314610066578063e89e106a14610084578063f6eaffc814610099575b600080fd5b61006461005f36600461020d565b6100ac565b005b61006e61010b565b60405161007b91906102e1565b60405180910390f35b61008c61015f565b60405161007b9190610337565b61008c6100a73660046101f5565b610165565b336001600160a01b037f000000000000000000000000000000000000000000000000000000000000000016146100fd5760405162461bcd60e51b81526004016100f4906102ec565b60405180910390fd5b6101078282610186565b5050565b600080600242446040516020016101239291906102d3565b6040516020818303038152906040528051906020012060001c6101469190610340565b905080610156576000915061015b565b600191505b5090565b60055481565b6004818154811061017557600080fd5b600091825260209091200154905081565b805161019990600490602084019061019e565b505050565b8280548282559060005260206000209081019282156101d9579160200282015b828111156101d95782518255916020019190600101906101be565b5061015b9291505b8082111561015b57600081556001016101e1565b600060208284031215610206578081fd5b5035919050565b6000806040838503121561021f578081fd5b8235915060208084013567ffffffffffffffff8082111561023e578384fd5b818601915086601f830112610251578384fd5b81358181111561026357610263610360565b8381026040518582820101818110858211171561028257610282610360565b604052828152858101935084860182860187018b10156102a0578788fd5b8795505b838610156102c25780358552600195909501949386019386016102a4565b508096505050505050509250929050565b918252602082015260400190565b901515815260200190565b6020808252602b908201527f4f6e6c7920436f6f7264696e61746f72732063616e2063616c6c20666f72207260408201526a616e646f6d20776f72647360a81b606082015260800190565b90815260200190565b60008261035b57634e487b7160e01b81526012600452602481fd5b500690565b634e487b7160e01b600052604160045260246000fdfea26469706673582212202edee104c4abcc00193aa888ac023a6b9d743adc65cccf853c8e76d7218e58d164736f6c63430008000033",
  "immutableReferences": {
    "484": [
      {
        "length": 32,
        "start": 183
      }
    ]
  },
  "source": "// SPDX-License-Identifier: MIT\r\n\r\npragma solidity >=0.8.0 <0.9.0;\r\n\r\n//import Chainlink VRFv2\r\nimport '../github/smartcontractkit/chainlink/contracts/src/v0.8/VRFConsumerBaseV2.sol';\r\nimport '../github/smartcontractkit/chainlink/contracts/src/v0.8/interfaces/VRFCoordinatorV2Interface.sol';\r\nimport '../github/smartcontractkit/chainlink/contracts/src/v0.8/interfaces/LinkTokenInterface.sol';\r\n\r\ncontract VRFNumberGenerators is VRFConsumerBaseV2 {\r\n    VRFCoordinatorV2Interface Coordinator;\r\n\r\n    //Subscription ID for calling from VRF\r\n    uint64 sub_ID;\r\n\r\n    //Rinkleby testnet coordinator address\r\n    address vrfCoordinator = 0x6168499c0cFfCaCD319c818142124B7A15E857ab;\r\n\r\n    //Gas lane (sets max gas usage)\r\n    bytes32 keyHash = 0xd89b2bf150e3b9e13446986e571fb9cab24b13cea0a43ea20a6049a85cc807cc;\r\n\r\n    //storing each word costs ~20k gas, planning on storing one word\r\n    uint32 callbackGasLimit = 40000;\r\n    uint16 requestConfirmations = 3;\r\n    uint32 numWords = 1;\r\n\r\n    uint256[] public s_randomWords;\r\n    uint256 public s_requestId;\r\n    address s_owner;\r\n\r\n    //Create VRF base\r\n    constructor(uint64 subscriptionId) VRFConsumerBaseV2(vrfCoordinator) {\r\n        Coordinator = VRFCoordinatorV2Interface(vrfCoordinator);\r\n        s_owner = msg.sender;\r\n        sub_ID = subscriptionId;\r\n    }\r\n\r\n    //Currently assumes subscription is properly funded\r\n    //will change in future\r\n    function requestRandomWords() internal onlyOwner {\r\n        // Will revert if subscription is not set and funded.\r\n        s_requestId = Coordinator.requestRandomWords(\r\n            keyHash,\r\n            sub_ID,\r\n            requestConfirmations,\r\n            callbackGasLimit,\r\n            numWords\r\n        );\r\n    }\r\n\r\n    function fulfillRandomWords(\r\n        uint256, /* requestId */\r\n        uint256[] memory randomWords\r\n    ) internal override{\r\n        s_randomWords = randomWords;\r\n    }\r\n\r\n    // Generates a random word then calculates mod 2 of the word to flip a coin\r\n    // If the number was even (x mod 2 = 0) return false (tails)\r\n    // If the number was odd (else, mod 2 can only be 1 or 0) return true (heads)\r\n    function flipCoin() external view returns(bool coin){\r\n        //@dev TEMPORARY SOLUTION TO VRF BEING ANNOYING\r\n        //@dev PLEASE IMPLEMENT VRF PROPERLY BEFORE FINAL DEPLOYEMENT\r\n        //@dev DUMBASS\r\n        uint ranNum = uint(keccak256(abi.encodePacked(block.timestamp, block.difficulty))) % 2;\r\n        if(ranNum == 0) coin = false;\r\n        else coin = true;\r\n        return coin;\r\n    }\r\n\r\n    modifier onlyOwner() {\r\n        require(msg.sender == s_owner);\r\n        _;\r\n    }\r\n}\r\n",
  "sourcePath": "C:\\Users\\andre\\solidity projects\\vrf practice\\contracts\\VRFNumberGenerators.sol",
  "compiler": {
    "name": "solc",
    "version": "0.8.0+commit.c7dfd78e.Emscripten.clang"
  },
  "schemaVersion": "3.4.7",
  "updatedAt": "2022-06-26T17:15:22.406Z",
  "networkType": "ethereum",
  "devdoc": {
    "kind": "dev",
    "methods": {},
    "version": 1
  },
  "userdoc": {
    "kind": "user",
    "methods": {},
    "version": 1
  }
}